BL51 BANKED LINKER/LOCATER V6.22                                                        08/08/2017  11:07:57  PAGE 1


BL51 BANKED LINKER/LOCATER V6.22, INVOKED BY:
D:\KEIL\C51\BIN\BL51.EXE .\Objects\STARTUP.obj, .\Objects\51Kernel.obj, .\Objects\51SYS.obj, .\Objects\usart.obj TO .\Ob
>> jects\51Sos RTX51TINY PRINT (.\Listings\51Sos.m51) RAMSIZE (256)


MEMORY MODEL: SMALL


INPUT MODULES INCLUDED:
  .\Objects\STARTUP.obj (?C_STARTUP)
  .\Objects\51Kernel.obj (_51KERNEL)
  .\Objects\51SYS.obj (51SYS)
  .\Objects\usart.obj (USART)
  D:\KEIL\C51\LIB\C51S.LIB (?C_INIT)
  D:\KEIL\C51\LIB\C51S.LIB (?C?CLDOPTR)


LINK MAP OF MODULE:  .\Objects\51Sos (?C_STARTUP)


            TYPE    BASE      LENGTH    RELOCATION   SEGMENT NAME
            -----------------------------------------------------

            * * * * * * *   D A T A   M E M O R Y   * * * * * * *
            REG     0000H     0008H     ABSOLUTE     "REG BANK 0"
            DATA    0008H     0006H     UNIT         ?DT?USART
            DATA    000EH     0006H     UNIT         _DATA_GROUP_
                    0014H     0004H                  *** GAP ***
            REG     0018H     0008H     ABSOLUTE     "REG BANK 3"
            BIT     0020H.0   0000H.1   UNIT         ?BI?USART
                    0020H.1   0000H.7                *** GAP ***
            DATA    0021H     0005H     UNIT         ?DT?51KERNEL
            IDATA   0026H     006EH     UNIT         ?ID?51KERNEL
            IDATA   0094H     0001H     UNIT         ?STACK

            * * * * * * *   C O D E   M E M O R Y   * * * * * * *
            CODE    0000H     0003H     ABSOLUTE     
            CODE    0003H     001FH     INBLOCK      ?PR?OS_START?51KERNEL
                    0022H     0001H                  *** GAP ***
            CODE    0023H     0002H     ABSOLUTE     
            CODE    0025H     0005H     UNIT         ?CO?USART
                    002AH     0001H                  *** GAP ***
            CODE    002BH     0002H     ABSOLUTE     
            CODE    002DH     008CH     UNIT         ?C_C51STARTUP
            CODE    00B9H     0080H     INBLOCK      ?PR?EXIT_INT?51KERNEL
            CODE    0139H     0066H     INBLOCK      ?PR?TIMER2_ISR?51KERNEL
            CODE    019FH     005BH     INBLOCK      ?PR?OS_TASK_SWITCH?51KERNEL
            CODE    01FAH     0057H     INBLOCK      ?PR?SERIAL?USART
            CODE    0251H     003BH     INBLOCK      ?PR?_OS_TASK_CREATE?51KERNEL
            CODE    028CH     0038H     INBLOCK      ?PR?MAIN?51SYS
            CODE    02C4H     002DH     UNIT         ?C?LIB_CODE
            CODE    02F1H     002BH     INBLOCK      ?PR?_SEND_STRING_COM?USART
            CODE    031CH     0026H     INBLOCK      ?PR?_OS_DELAY?51KERNEL
            CODE    0342H     001EH     INBLOCK      ?PR?_DELAY_MS?51KERNEL
            CODE    0360H     0019H     INBLOCK      ?PR?OS_INIT?51KERNEL
            CODE    0379H     0019H     INBLOCK      ?PR?TASK_1?51SYS
            CODE    0392H     0012H     INBLOCK      ?PR?INIT_SERIALCOMM?USART
            CODE    03A4H     000EH     INBLOCK      ?PR?TASK_2?51SYS
BL51 BANKED LINKER/LOCATER V6.22                                                      08/08/2017  11:07:57  PAGE 2


            CODE    03B2H     0008H     UNIT         ?CO?51KERNEL
            CODE    03BAH     0008H     INBLOCK      ?PR?_SEND_CHAR_COM?USART
            CODE    03C2H     0003H     UNIT         ?C_INITSEG
            CODE    03C5H     0002H     INBLOCK      ?PR?TASK_0?51SYS
            CODE    03C7H     0002H     INBLOCK      ?PR?TASK_3?51SYS
            CODE    03C9H     0002H     INBLOCK      ?PR?TASK_4?51SYS



OVERLAY MAP OF MODULE:   .\Objects\51Sos (?C_STARTUP)


SEGMENT                                DATA_GROUP 
  +--> CALLED SEGMENT                START    LENGTH
----------------------------------------------------
?C_C51STARTUP                        -----    -----
  +--> ?PR?MAIN?51SYS
  +--> ?C_INITSEG

?PR?MAIN?51SYS                       -----    -----
  +--> ?PR?OS_INIT?51KERNEL
  +--> ?PR?INIT_SERIALCOMM?USART
  +--> ?PR?TASK_0?51SYS
  +--> ?PR?_OS_TASK_CREATE?51KERNEL
  +--> ?PR?TASK_1?51SYS
  +--> ?PR?TASK_2?51SYS
  +--> ?PR?TASK_3?51SYS
  +--> ?PR?TASK_4?51SYS
  +--> ?PR?OS_START?51KERNEL

?PR?_OS_TASK_CREATE?51KERNEL         -----    -----
  +--> ?CO?51KERNEL

?PR?TASK_1?51SYS                     -----    -----
  +--> ?PR?_SEND_STRING_COM?USART
  +--> ?PR?_DELAY_MS?51KERNEL

?PR?_SEND_STRING_COM?USART           000EH    0005H
  +--> ?PR?_SEND_CHAR_COM?USART

?PR?TASK_2?51SYS                     000EH    0002H
  +--> ?PR?_OS_DELAY?51KERNEL

?PR?_OS_DELAY?51KERNEL               -----    -----
  +--> ?CO?51KERNEL
  +--> ?PR?OS_TASK_SWITCH?51KERNEL

?PR?OS_TASK_SWITCH?51KERNEL          -----    -----
  +--> ?CO?51KERNEL

*** NEW ROOT ***************************************************

?PR?TIMER2_ISR?51KERNEL              -----    -----
  +--> ?CO?51KERNEL
  +--> ?PR?EXIT_INT?51KERNEL

?PR?EXIT_INT?51KERNEL                -----    -----
BL51 BANKED LINKER/LOCATER V6.22                                                      08/08/2017  11:07:57  PAGE 3


  +--> ?CO?51KERNEL

*** NEW ROOT ***************************************************

?PR?SERIAL?USART                     0013H    0001H
  +--> ?CO?USART
  +--> ?PR?EXIT_INT?51KERNEL



SYMBOL TABLE OF MODULE:  .\Objects\51Sos (?C_STARTUP)

  VALUE           TYPE          NAME
  ----------------------------------

  -------         MODULE        ?C_STARTUP
  C:002DH         SEGMENT       ?C_C51STARTUP
  I:0094H         SEGMENT       ?STACK
  C:0000H         PUBLIC        ?C_STARTUP
  D:00E0H         SYMBOL        ACC
  D:00F0H         SYMBOL        B
  D:0083H         SYMBOL        DPH
  D:0082H         SYMBOL        DPL
  N:0000H         SYMBOL        IBPSTACK
  N:0100H         SYMBOL        IBPSTACKTOP
  N:0080H         SYMBOL        IDATALEN
  C:0030H         SYMBOL        IDATALOOP
  N:0000H         SYMBOL        PBPSTACK
  N:0100H         SYMBOL        PBPSTACKTOP
  N:0000H         SYMBOL        PDATALEN
  N:0000H         SYMBOL        PDATASTART
  N:0000H         SYMBOL        PPAGE
  N:0000H         SYMBOL        PPAGEENABLE
  D:00A0H         SYMBOL        PPAGE_SFR
  D:0081H         SYMBOL        SP
  C:002DH         SYMBOL        STARTUP1
  N:0000H         SYMBOL        XBPSTACK
  N:0000H         SYMBOL        XBPSTACKTOP
  N:0000H         SYMBOL        XDATALEN
  N:0000H         SYMBOL        XDATASTART
  C:0000H         LINE#         126
  C:002DH         LINE#         133
  C:002FH         LINE#         134
  C:0030H         LINE#         135
  C:0031H         LINE#         136
  C:0033H         LINE#         185
  C:0036H         LINE#         196
  -------         ENDMOD        ?C_STARTUP

  -------         MODULE        _51KERNEL
  C:0360H         SEGMENT       ?PR?OS_INIT?51KERNEL
  C:0251H         SEGMENT       ?PR?_OS_TASK_CREATE?51KERNEL
  C:031CH         SEGMENT       ?PR?_OS_DELAY?51KERNEL
  C:0003H         SEGMENT       ?PR?OS_START?51KERNEL
  C:019FH         SEGMENT       ?PR?OS_TASK_SWITCH?51KERNEL
  C:00B9H         SEGMENT       ?PR?EXIT_INT?51KERNEL
  C:0139H         SEGMENT       ?PR?TIMER2_ISR?51KERNEL
BL51 BANKED LINKER/LOCATER V6.22                                                      08/08/2017  11:07:57  PAGE 4


  C:0342H         SEGMENT       ?PR?_DELAY_MS?51KERNEL
  C:03B2H         SEGMENT       ?CO?51KERNEL
  D:0021H         SEGMENT       ?DT?51KERNEL
  I:0026H         SEGMENT       ?ID?51KERNEL
  C:00B9H         PUBLIC        EXIT_INT
  D:0024H         PUBLIC        INT_COUNT
  D:0025H         PUBLIC        OS_EN_CR_COUNT
  C:0360H         PUBLIC        OS_INIT
  C:03B2H         PUBLIC        OS_MAP_TBL
  C:0003H         PUBLIC        OS_START
  D:0022H         PUBLIC        OS_TASK_INT_TBL
  D:0023H         PUBLIC        OS_TASK_RDY_TBL
  D:0021H         PUBLIC        OS_TASK_RUNNING_ID
  I:0026H         PUBLIC        OS_TASK_STACK
  C:019FH         PUBLIC        OS_TASK_SWITCH
  I:008AH         PUBLIC        OS_TCB
  C:0139H         PUBLIC        TIMER2_ISR
  C:0342H         PUBLIC        _DELAY_MS
  C:031CH         PUBLIC        _OS_DELAY
  C:0251H         PUBLIC        _OS_TASK_CREATE
  C:028BH         SYMBOL        ?C0004
  C:0340H         SYMBOL        ?C0005
  C:01B7H         SYMBOL        ?C0009
  C:01C4H         SYMBOL        ?C0010
  C:01C0H         SYMBOL        ?C0011
  C:01C0H         SYMBOL        ?C0012
  C:01F6H         SYMBOL        ?C0013
  C:011BH         SYMBOL        ?C0015
  C:00D9H         SYMBOL        ?C0016
  C:00E6H         SYMBOL        ?C0017
  C:00E2H         SYMBOL        ?C0018
  C:00E2H         SYMBOL        ?C0019
  C:0118H         SYMBOL        ?C0020
  C:015EH         SYMBOL        ?C0022
  C:0182H         SYMBOL        ?C0023
  C:017EH         SYMBOL        ?C0024
  C:0342H         SYMBOL        ?C0028
  C:0358H         SYMBOL        ?C0030
  C:034FH         SYMBOL        ?C0031
  C:035FH         SYMBOL        ?C0034
  C:0354H         SYMBOL        ?C0035
  C:035DH         SYMBOL        ?C0036
  B:00D0H.6       SYMBOL        AC
  D:00E0H         SYMBOL        ACC
  D:00F0H         SYMBOL        B
  B:00C8H.0       SYMBOL        CP_RL2
  B:00D0H.7       SYMBOL        CY
  B:00C8H.1       SYMBOL        C_T2
  D:0083H         SYMBOL        DPH
  D:0082H         SYMBOL        DPL
  B:00A8H.7       SYMBOL        EA
  B:00A8H.4       SYMBOL        ES
  B:00A8H.1       SYMBOL        ET0
  B:00A8H.3       SYMBOL        ET1
  B:00A8H.5       SYMBOL        ET2
  B:00A8H.0       SYMBOL        EX0
  B:00A8H.2       SYMBOL        EX1
BL51 BANKED LINKER/LOCATER V6.22                                                      08/08/2017  11:07:57  PAGE 5


  B:00C8H.3       SYMBOL        EXEN2
  B:00C8H.6       SYMBOL        EXF2
  B:00D0H.5       SYMBOL        F0
  D:00A8H         SYMBOL        IE
  B:0088H.1       SYMBOL        IE0
  B:0088H.3       SYMBOL        IE1
  B:00B0H.2       SYMBOL        INT0
  B:00B0H.3       SYMBOL        INT1
  D:00B8H         SYMBOL        IP
  B:0088H.0       SYMBOL        IT0
  B:0088H.2       SYMBOL        IT1
  B:00D0H.2       SYMBOL        OV
  B:00D0H.0       SYMBOL        P
  D:0080H         SYMBOL        P0
  D:0090H         SYMBOL        P1
  D:00A0H         SYMBOL        P2
  D:00B0H         SYMBOL        P3
  D:0087H         SYMBOL        PCON
  B:00B8H.4       SYMBOL        PS
  D:00D0H         SYMBOL        PSW
  B:00B8H.1       SYMBOL        PT0
  B:00B8H.3       SYMBOL        PT1
  B:00B8H.5       SYMBOL        PT2
  B:00B8H.0       SYMBOL        PX0
  B:00B8H.2       SYMBOL        PX1
  B:0098H.2       SYMBOL        RB8
  D:00CBH         SYMBOL        RCAP2H
  D:00CAH         SYMBOL        RCAP2L
  B:00C8H.5       SYMBOL        RCLK
  B:00B0H.7       SYMBOL        RD
  B:0098H.4       SYMBOL        REN
  B:0098H.0       SYMBOL        RI
  B:00D0H.3       SYMBOL        RS0
  B:00D0H.4       SYMBOL        RS1
  B:00B0H.0       SYMBOL        RXD
  D:0099H         SYMBOL        SBUF
  D:0098H         SYMBOL        SCON
  B:0098H.7       SYMBOL        SM0
  B:0098H.6       SYMBOL        SM1
  B:0098H.5       SYMBOL        SM2
  D:0081H         SYMBOL        SP
  B:00B0H.4       SYMBOL        T0
  B:00B0H.5       SYMBOL        T1
  B:0090H.0       SYMBOL        T2
  D:00C8H         SYMBOL        T2CON
  B:0090H.1       SYMBOL        T2EX
  B:0098H.3       SYMBOL        TB8
  B:00C8H.4       SYMBOL        TCLK
  D:0088H         SYMBOL        TCON
  B:0088H.5       SYMBOL        TF0
  B:0088H.7       SYMBOL        TF1
  B:00C8H.7       SYMBOL        TF2
  D:008CH         SYMBOL        TH0
  D:008DH         SYMBOL        TH1
  D:00CDH         SYMBOL        TH2
  B:0098H.1       SYMBOL        TI
  D:008AH         SYMBOL        TL0
BL51 BANKED LINKER/LOCATER V6.22                                                      08/08/2017  11:07:57  PAGE 6


  D:008BH         SYMBOL        TL1
  D:00CCH         SYMBOL        TL2
  D:0089H         SYMBOL        TMOD
  B:0088H.4       SYMBOL        TR0
  B:0088H.6       SYMBOL        TR1
  B:00C8H.2       SYMBOL        TR2
  B:00B0H.1       SYMBOL        TXD
  B:00B0H.6       SYMBOL        WR
  N:0000H         SYMBOL        _51KERNEL
  C:0360H         LINE#         159
  C:0362H         LINE#         162
  C:0364H         LINE#         165
  C:0365H         LINE#         166
  C:0367H         LINE#         169
  C:0369H         LINE#         172
  C:036CH         LINE#         175
  C:036FH         LINE#         178
  C:0371H         LINE#         181
  C:0374H         LINE#         184
  C:0376H         LINE#         187
  C:0378H         LINE#         190
  C:0251H         LINE#         201
  C:0253H         LINE#         208
  C:0255H         LINE#         209
  C:0257H         LINE#         212
  C:0259H         LINE#         213
  C:025BH         LINE#         214
  C:025DH         LINE#         217
  C:025FH         LINE#         218
  C:0260H         LINE#         219
  C:0261H         LINE#         220
  C:0262H         LINE#         221
  C:0264H         LINE#         224
  C:0265H         LINE#         225
  C:0267H         LINE#         226
  C:0268H         LINE#         227
  C:0269H         LINE#         228
  C:026BH         LINE#         229
  C:026DH         LINE#         230
  C:026EH         LINE#         231
  C:0270H         LINE#         234
  C:0271H         LINE#         235
  C:0274H         LINE#         236
  C:0275H         LINE#         237
  C:0277H         LINE#         240
  C:0278H         LINE#         241
  C:027AH         LINE#         242
  C:027CH         LINE#         243
  C:027DH         LINE#         244
  C:027EH         LINE#         245
  C:027FH         LINE#         248
  C:0281H         LINE#         249
  C:0282H         LINE#         250
  C:0284H         LINE#         251
  C:0286H         LINE#         252
  C:0289H         LINE#         253
  C:028BH         LINE#         257
BL51 BANKED LINKER/LOCATER V6.22                                                      08/08/2017  11:07:57  PAGE 7


  C:031CH         LINE#         272
  C:031EH         LINE#         273
  C:0320H         LINE#         276
  C:0322H         LINE#         277
  C:0323H         LINE#         278
  C:0325H         LINE#         279
  C:0327H         LINE#         280
  C:0328H         LINE#         281
  C:032AH         LINE#         284
  C:032CH         LINE#         285
  C:032DH         LINE#         286
  C:0330H         LINE#         287
  C:0331H         LINE#         288
  C:0332H         LINE#         289
  C:0334H         LINE#         292
  C:0336H         LINE#         293
  C:0337H         LINE#         294
  C:0339H         LINE#         295
  C:033BH         LINE#         296
  C:033EH         LINE#         297
  C:0340H         LINE#         301
  C:0003H         LINE#         316
  C:0004H         LINE#         317
  C:0006H         LINE#         320
  C:0008H         LINE#         321
  C:0009H         LINE#         322
  C:000BH         LINE#         323
  C:000DH         LINE#         324
  C:000EH         LINE#         325
  C:0010H         LINE#         326
  C:0011H         LINE#         327
  C:0012H         LINE#         330
  C:0014H         LINE#         333
  C:0016H         LINE#         334
  C:0017H         LINE#         335
  C:0019H         LINE#         336
  C:001BH         LINE#         337
  C:001CH         LINE#         338
  C:001DH         LINE#         339
  C:001FH         LINE#         342
  C:0021H         LINE#         345
  C:019FH         LINE#         360
  C:01A1H         LINE#         363
  C:01A3H         LINE#         364
  C:01A4H         LINE#         365
  C:01A6H         LINE#         366
  C:01A8H         LINE#         367
  C:01A9H         LINE#         368
  C:01ABH         LINE#         371
  C:01ADH         LINE#         372
  C:01AEH         LINE#         373
  C:01B1H         LINE#         374
  C:01B2H         LINE#         375
  C:01B3H         LINE#         376
  C:01B5H         LINE#         380
  C:01B6H         LINE#         381
  C:01B7H         LINE#         387
BL51 BANKED LINKER/LOCATER V6.22                                                      08/08/2017  11:07:57  PAGE 8


  C:01B8H         LINE#         388
  C:01BBH         LINE#         389
  C:01BCH         LINE#         390
  C:01BEH         LINE#         391
  C:01C0H         LINE#         402
  C:01C1H         LINE#         403
  C:01C4H         LINE#         407
  C:01C6H         LINE#         410
  C:01C8H         LINE#         411
  C:01C9H         LINE#         412
  C:01CBH         LINE#         413
  C:01CDH         LINE#         414
  C:01CEH         LINE#         415
  C:01CFH         LINE#         416
  C:01D1H         LINE#         419
  C:01D3H         LINE#         420
  C:01D4H         LINE#         421
  C:01D7H         LINE#         422
  C:01D8H         LINE#         423
  C:01DAH         LINE#         424
  C:01DCH         LINE#         428
  C:01DEH         LINE#         430
  C:01E0H         LINE#         432
  C:01E2H         LINE#         434
  C:01E4H         LINE#         436
  C:01E6H         LINE#         438
  C:01E8H         LINE#         440
  C:01EAH         LINE#         442
  C:01ECH         LINE#         444
  C:01EEH         LINE#         446
  C:01F0H         LINE#         448
  C:01F2H         LINE#         450
  C:01F4H         LINE#         452
  C:01F6H         LINE#         458
  C:01F8H         LINE#         460
  C:01F9H         LINE#         463
  C:00B9H         LINE#         478
  C:00BBH         LINE#         479
  C:00BDH         LINE#         482
  C:00BFH         LINE#         483
  C:00C1H         LINE#         484
  C:00C2H         LINE#         485
  C:00C4H         LINE#         490
  C:00C6H         LINE#         491
  C:00C7H         LINE#         492
  C:00C9H         LINE#         493
  C:00CBH         LINE#         494
  C:00CCH         LINE#         495
  C:00CEH         LINE#         498
  C:00D0H         LINE#         499
  C:00D1H         LINE#         500
  C:00D4H         LINE#         501
  C:00D5H         LINE#         502
  C:00D7H         LINE#         506
  C:00D8H         LINE#         507
  C:00D9H         LINE#         513
  C:00DAH         LINE#         514
BL51 BANKED LINKER/LOCATER V6.22                                                      08/08/2017  11:07:57  PAGE 9


  C:00DDH         LINE#         515
  C:00DEH         LINE#         516
  C:00E0H         LINE#         517
  C:00E2H         LINE#         528
  C:00E3H         LINE#         529
  C:00E6H         LINE#         533
  C:00E8H         LINE#         536
  C:00EAH         LINE#         537
  C:00EBH         LINE#         538
  C:00EDH         LINE#         539
  C:00EFH         LINE#         540
  C:00F0H         LINE#         541
  C:00F1H         LINE#         542
  C:00F3H         LINE#         545
  C:00F5H         LINE#         546
  C:00F6H         LINE#         547
  C:00F9H         LINE#         548
  C:00FAH         LINE#         549
  C:00FCH         LINE#         550
  C:00FEH         LINE#         554
  C:0100H         LINE#         556
  C:0102H         LINE#         558
  C:0104H         LINE#         560
  C:0106H         LINE#         562
  C:0108H         LINE#         564
  C:010AH         LINE#         566
  C:010CH         LINE#         568
  C:010EH         LINE#         570
  C:0110H         LINE#         572
  C:0112H         LINE#         574
  C:0114H         LINE#         576
  C:0116H         LINE#         578
  C:0118H         LINE#         584
  C:011AH         LINE#         586
  C:011BH         LINE#         591
  C:011DH         LINE#         593
  C:011FH         LINE#         595
  C:0121H         LINE#         597
  C:0123H         LINE#         599
  C:0125H         LINE#         601
  C:0127H         LINE#         603
  C:0129H         LINE#         605
  C:012BH         LINE#         607
  C:012DH         LINE#         609
  C:012FH         LINE#         611
  C:0131H         LINE#         613
  C:0133H         LINE#         615
  C:0135H         LINE#         618
  C:0137H         LINE#         620
  C:0138H         LINE#         623
  C:002BH         LINE#         627
  C:0139H         LINE#         635
  C:013BH         LINE#         636
  C:013DH         LINE#         637
  C:013FH         LINE#         638
  C:0141H         LINE#         639
  C:0143H         LINE#         640
BL51 BANKED LINKER/LOCATER V6.22                                                      08/08/2017  11:07:57  PAGE 10


  C:0146H         LINE#         641
  C:0148H         LINE#         642
  C:014AH         LINE#         643
  C:014CH         LINE#         644
  C:014EH         LINE#         645
  C:0150H         LINE#         646
  C:0152H         LINE#         647
  C:0154H         LINE#         648
  C:0156H         LINE#         655
  C:0158H         LINE#         658
  C:015AH         LINE#         659
  C:015CH         LINE#         663
  C:015DH         LINE#         664
  C:015EH         LINE#         670
  C:015FH         LINE#         671
  C:0161H         LINE#         672
  C:0163H         LINE#         673
  C:0164H         LINE#         674
  C:0165H         LINE#         675
  C:0167H         LINE#         680
  C:0168H         LINE#         681
  C:016AH         LINE#         682
  C:016CH         LINE#         683
  C:016DH         LINE#         684
  C:016EH         LINE#         687
  C:016FH         LINE#         688
  C:0171H         LINE#         689
  C:0173H         LINE#         690
  C:0174H         LINE#         691
  C:0175H         LINE#         692
  C:0177H         LINE#         697
  C:0178H         LINE#         698
  C:017BH         LINE#         699
  C:017CH         LINE#         700
  C:017EH         LINE#         708
  C:017FH         LINE#         709
  C:0182H         LINE#         713
  C:0184H         LINE#         716
  C:0186H         LINE#         717
  C:0188H         LINE#         718
  C:018AH         LINE#         719
  C:018CH         LINE#         720
  C:018EH         LINE#         721
  C:0190H         LINE#         722
  C:0192H         LINE#         723
  C:0194H         LINE#         724
  C:0196H         LINE#         725
  C:0198H         LINE#         726
  C:019AH         LINE#         727
  C:019CH         LINE#         728
  C:019EH         LINE#         729
  C:0342H         LINE#         748
  C:0343H         LINE#         749
  C:0344H         LINE#         750
  C:0346H         LINE#         751
  C:0347H         LINE#         752
  C:0349H         LINE#         753
BL51 BANKED LINKER/LOCATER V6.22                                                      08/08/2017  11:07:57  PAGE 11


  C:034BH         LINE#         757
  C:034DH         LINE#         758
  C:034FH         LINE#         760
  C:0350H         LINE#         761
  C:0351H         LINE#         762
  C:0353H         LINE#         763
  C:0354H         LINE#         765
  C:0355H         LINE#         766
  C:0356H         LINE#         767
  C:0358H         LINE#         769
  C:0359H         LINE#         770
  C:035AH         LINE#         771
  C:035CH         LINE#         772
  C:035DH         LINE#         774
  C:035FH         LINE#         778
  -------         ENDMOD        _51KERNEL

  -------         MODULE        51SYS
  C:0000H         SYMBOL        _ICE_DUMMY_
  D:0090H         PUBLIC        P1
  D:00B0H         PUBLIC        P3
  D:00A8H         PUBLIC        IE
  D:00B8H         PUBLIC        IP
  C:028CH         PUBLIC        main
  D:0098H         PUBLIC        SCON
  D:0088H         PUBLIC        TCON
  C:03C5H         PUBLIC        task_0
  C:0379H         PUBLIC        task_1
  C:03A4H         PUBLIC        task_2
  C:03C7H         PUBLIC        task_3
  C:03C9H         PUBLIC        task_4
  D:00C8H         PUBLIC        T2CON
  D:00D0H         PUBLIC        PSW
  -------         PROC          TASK_0
  C:03C5H         LINE#         7
  C:03C5H         LINE#         8
  C:03C5H         LINE#         9
  C:03C5H         LINE#         10
  C:03C5H         LINE#         12
  -------         ENDPROC       TASK_0
  -------         PROC          TASK_1
  C:0379H         LINE#         14
  C:0379H         LINE#         15
  C:0379H         LINE#         16
  C:0379H         LINE#         17
  C:0379H         LINE#         18
  C:037CH         LINE#         19
  C:037CH         LINE#         20
  C:037EH         LINE#         21
  C:038AH         LINE#         22
  C:038AH         LINE#         23
  C:0390H         LINE#         24
  -------         ENDPROC       TASK_1
  -------         PROC          TASK_2
  -------         DO            
  D:000EH         SYMBOL        i
  -------         ENDDO         
BL51 BANKED LINKER/LOCATER V6.22                                                      08/08/2017  11:07:57  PAGE 12


  C:03A4H         LINE#         27
  C:03A4H         LINE#         28
  C:03A4H         LINE#         30
  C:03A4H         LINE#         31
  C:03A4H         LINE#         32
  C:03ACH         LINE#         33
  C:03B0H         LINE#         34
  -------         ENDPROC       TASK_2
  -------         PROC          TASK_3
  C:03C7H         LINE#         37
  C:03C7H         LINE#         38
  C:03C7H         LINE#         40
  C:03C7H         LINE#         41
  C:03C7H         LINE#         43
  -------         ENDPROC       TASK_3
  -------         PROC          TASK_4
  C:03C9H         LINE#         46
  C:03C9H         LINE#         47
  C:03C9H         LINE#         48
  C:03C9H         LINE#         49
  C:03C9H         LINE#         51
  -------         ENDPROC       TASK_4
  -------         PROC          MAIN
  C:028CH         LINE#         54
  C:028CH         LINE#         55
  C:028CH         LINE#         56
  C:028EH         LINE#         57
  C:0290H         LINE#         58
  C:029AH         LINE#         59
  C:02A4H         LINE#         60
  C:02AEH         LINE#         61
  C:02B8H         LINE#         62
  C:02C2H         LINE#         63
  -------         ENDPROC       MAIN
  -------         ENDMOD        51SYS

  -------         MODULE        USART
  C:0000H         SYMBOL        _ICE_DUMMY_
  D:0090H         PUBLIC        P1
  D:00B0H         PUBLIC        P3
  C:01FAH         PUBLIC        serial
  B:00A8H.7       PUBLIC        EA
  D:00A8H         PUBLIC        IE
  D:00B8H         PUBLIC        IP
  B:0020H.0       PUBLIC        read_flag
  B:0098H.0       PUBLIC        RI
  B:0098H.1       PUBLIC        TI
  D:0099H         PUBLIC        SBUF
  D:0087H         PUBLIC        PCON
  D:0098H         PUBLIC        SCON
  D:0089H         PUBLIC        TMOD
  D:0088H         PUBLIC        TCON
  D:0008H         PUBLIC        inbuf1
  C:02F1H         PUBLIC        _send_string_com
  C:0392H         PUBLIC        init_serialcomm
  D:008DH         PUBLIC        TH1
  C:03BAH         PUBLIC        _send_char_com
BL51 BANKED LINKER/LOCATER V6.22                                                      08/08/2017  11:07:57  PAGE 13


  B:0088H.6       PUBLIC        TR1
  D:000CH         PUBLIC        checksum
  D:000DH         PUBLIC        count3
  D:00C8H         PUBLIC        T2CON
  D:00D0H         PUBLIC        PSW
  -------         PROC          INIT_SERIALCOMM
  C:0392H         LINE#         9
  C:0392H         LINE#         10
  C:0392H         LINE#         11
  C:0395H         LINE#         12
  C:0398H         LINE#         13
  C:039BH         LINE#         14
  C:039EH         LINE#         15
  C:03A1H         LINE#         16
  C:03A3H         LINE#         18
  -------         ENDPROC       INIT_SERIALCOMM
  -------         PROC          _SEND_CHAR_COM
  D:0007H         SYMBOL        ch
  C:03BAH         LINE#         21
  C:03BAH         LINE#         22
  C:03BAH         LINE#         23
  C:03BCH         LINE#         24
  C:03BFH         LINE#         25
  C:03C1H         LINE#         26
  -------         ENDPROC       _SEND_CHAR_COM
  -------         PROC          _SEND_STRING_COM
  D:000EH         SYMBOL        str
  D:0011H         SYMBOL        strlen
  -------         DO            
  D:0004H         SYMBOL        k
  -------         ENDDO         
  C:02F1H         LINE#         29
  C:02FBH         LINE#         30
  C:02FBH         LINE#         31
  C:02FEH         LINE#         33
  C:02FEH         LINE#         34
  C:030DH         LINE#         35
  C:0312H         LINE#         36
  C:031BH         LINE#         37
  -------         ENDPROC       _SEND_STRING_COM
  -------         PROC          SERIAL
  -------         DO            
  D:0013H         SYMBOL        ch
  -------         ENDDO         
  C:01FAH         LINE#         41
  C:0207H         LINE#         43
  C:020BH         LINE#         44
  C:020EH         LINE#         45
  C:020EH         LINE#         47
  C:0210H         LINE#         48
  C:0213H         LINE#         49
  C:021AH         LINE#         50
  C:021AH         LINE#         51
  C:021DH         LINE#         52
  C:0224H         LINE#         53
  C:022AH         LINE#         54
  C:022CH         LINE#         56
BL51 BANKED LINKER/LOCATER V6.22                                                      08/08/2017  11:07:57  PAGE 14


  C:022CH         LINE#         57
  C:022EH         LINE#         58
  C:0235H         LINE#         59
  C:0239H         LINE#         60
  C:0242H         LINE#         61
  C:0242H         LINE#         62
  C:0244H         LINE#         64
  C:0244H         LINE#         65
  C:0244H         LINE#         66
  C:0244H         LINE#         67
  C:0246H         LINE#         68
  -------         ENDPROC       SERIAL
  -------         ENDMOD        USART

  -------         MODULE        ?C?CLDOPTR
  C:02C4H         PUBLIC        ?C?CLDOPTR
  -------         ENDMOD        ?C?CLDOPTR

Program Size: data=144.1 xdata=0 code=969
LINK/LOCATE RUN COMPLETE.  0 WARNING(S),  0 ERROR(S)
